:100000000C942A000C9447000C9447000C94470071
:100010000C9447000C9447000C9447000C94470044
:100020000C9447000C9447000C9429060C9447004C
:100030000C9447000C94D3020C9493020C94470048
:100040000C9447000C9447000C9447000C94470014
:100050000C94470011241FBECFE5D8E0DEBFCDBF12
:1000600010E0A0E6B0E0E2E0F8E102C005900D92F9
:10007000A436B107D9F710E0A4E6B0E001C01D92A4
:10008000A137B107E1F70E946F0B0C94FF0B0C94A2
:100090000000DF93CF9300D000D00F92CDB7DEB732
:1000A0009D838C8381E08B83EC81FD8180819181B4
:1000B000A281B3812CE231E040E050E0BC01CD01EF
:1000C0000E94DD0BDC01CB010097A105B10509F011
:1000D0004BC1EC81FD818481883008F042C1EC8104
:1000E000FD8184818823B1F4A0E4B0E0E0E4F0E095
:1000F00080818D7F8C93A0E4B0E0E0E4F0E080812B
:100100008B7F8C93A0E4B0E0E0E4F0E080818B7F13
:100110008C9366C0EC81FD8184818130B1F4A0E4D0
:10012000B0E0E0E4F0E0808182608C93A0E4B0E095
:10013000E0E4F0E080818B7F8C93A0E4B0E0E0E429
:10014000F0E080818B7F8C934BC0EC81FD818481BA
:100150008230B1F4A0E4B0E0E0E4F0E080818D7F93
:100160008C93A0E4B0E0E0E4F0E0808184608C93C4
:10017000A0E4B0E0E0E4F0E080818B7F8C9330C0BD
:10018000EC81FD8184818330B1F4A0E4B0E0E0E44F
:10019000F0E0808182608C93A0E4B0E0E0E4F0E0E5
:1001A000808184608C93A0E4B0E0E0E4F0E08081A2
:1001B0008B7F8C9315C0A0E4B0E0E0E4F0E0808198
:1001C00082608C93A0E4B0E0E0E4F0E080818460A1
:1001D0008C93A0E4B0E0E0E4F0E0808184608C9354
:1001E000EC81FD818581882331F0EC81FD81858161
:1001F000813009F0B3C00E94BF018B83EC81FD8187
:100200008581809364008B81813009F0AFC00E94AA
:10021000D2018B838B81813009F0A8C00E94EC0150
:100220008B838B81813009F0A1C0EC81FD818581B8
:10023000813009F04DC0A0E4B0E0E0E4F0E080815E
:1002400080688C93EC81FD8180819181A281B38152
:10025000880F991FAA1FBB1F880F991FAA1FBB1FBA
:10026000880F991FAA1FBB1F880F991FAA1FBB1FAA
:100270009C01AD0180E092E1AAE7B0E0BC01CD01B4
:100280000E94DD0BDA01C90101979A838983AAE2F2
:10029000B0E0EAE2F0E0808188608C93AAE2B0E00E
:1002A000EAE2F0E0808180618C93E0E4F0E0898113
:1002B0009A81892F99278083E9E2F0E08981808300
:1002C000AFE5B0E0EFE5F0E0808180688C934EC050
:1002D000A0E4B0E0E0E4F0E0808180688C93EC8101
:1002E000FD8180819181A281B381880F991FAA1F0E
:1002F000BB1F880F991FAA1FBB1F880F991FAA1F1A
:10030000BB1F880F991FAA1FBB1F9C01AD0180E076
:1003100092E1AAE7B0E0BC01CD010E94DD0BDA0159
:10032000C90101979A838983AAE2B0E0EAE2F0E08A
:10033000808188608C93AAE2B0E0EAE2F0E08081FC
:1003400080618C93E0E4F0E089819A81892F99277C
:100350008083E9E2F0E08981808308C084E08B83B8
:1003600005C083E08B8302C082E08B838B810F907A
:100370000F900F900F900F90CF91DF910895DF9322
:10038000CF930F92CDB7DEB781E08983A0E4B0E0D0
:10039000E0E4F0E080818F7B8C9389810F90CF9196
:1003A000DF910895DF93CF930F92CDB7DEB781E051
:1003B0008983A0E4B0E0E0E4F0E080818F7D8C935D
:1003C000A0E4B0E0E0E4F0E080818F7E8C9389814E
:1003D0000F90CF91DF910895DF93CF930F92CDB718
:1003E000DEB781E08983A0E4B0E0E0E4F0E0808162
:1003F000877F8C9389810F90CF91DF910895DF9350
:10040000CF9300D00F92CDB7DEB78B8381E08A8384
:1004100080916400882381F4EBE2F0E08081829592
:10042000869587708170898389818130D9F4ECE267
:10043000F0E08B81808316C0EBE2F0E0808186954E
:1004400086958695882F90E081709070009751F482
:100450008B8180937000AAE2B0E0EAE2F0E0808154
:1004600080628C938A810F900F900F90CF91DF91D3
:100470000895DF93CF9300D00F92CDB7DEB79B8363
:100480008A8381E0898380916400882379F4EBE298
:10049000F0E08081881F8827881F8130A1F4ECE27A
:1004A000F0E08081EA81FB8180830DC08A819B819D
:1004B00090936F0080936E00AAE2B0E0EAE2F0E071
:1004C000808180688C9389810F900F900F90CF91DD
:1004D000DF910895DF93CF9300D00F92CDB7DEB7B1
:1004E0009B838A83EBE2F0E08081829586958695F6
:1004F0008370817089838981813061F4ABE2B0E0DF
:10050000EBE2F0E0808180648C93EA81FB8181E002
:10051000808303C0EA81FB8110820F900F900F90BF
:10052000CF91DF9108951F920F920FB60F92112471
:100530008F939F93AF93BF93EF93FF93DF93CF93EB
:10054000CDB7DEB7EBE2F0E08081829586958770CB
:10055000882F90E081709070882389F0EBE2F0E0C2
:100560008081869586958695882F90E08170907021
:10057000009729F4ECE2F0E0809170008083AAE219
:10058000B0E0EAE2F0E080818F7D8C93CF91DF9143
:10059000FF91EF91BF91AF919F918F910F900FBEFF
:1005A0000F901F9018951F920F920FB60F92112463
:1005B0008F939F93AF93BF93EF93FF93DF93CF936B
:1005C000CDB7DEB7EBE2F0E080818295869587704B
:1005D000882F90E081709070882341F0E0916E0048
:1005E000F0916F00ACE2B0E08C918083AAE2B0E0C1
:1005F000EAE2F0E080818F778C93CF91DF91FF91D9
:10060000EF91BF91AF919F918F910F900FBE0F907F
:100610001F901895DF93CF9300D000D00F92CDB7E5
:10062000DEB79B838A831982EA81FB818081282F30
:1006300030E03D832C838C819D818130910571F167
:100640002C813D812230310509F44BC08C819D8184
:10065000009709F069C0EA81FB818281882F90E0D0
:1006600000968230910530F4EA81FB81818180938C
:10067000670002C081E08983EA81FB818381882F42
:1006800090E000968230910530F4EA81FB8183810D
:1006900080936A004BC081E0898348C0EA81FB8176
:1006A0008281882F90E000968230910530F4EA81B3
:1006B000FB8181818093680002C081E08983EA81A7
:1006C000FB818381882F90E000968230910530F481
:1006D000EA81FB81838180936B0028C081E089835C
:1006E00025C0EA81FB818281882F90E000968230CC
:1006F000910530F4EA81FB8181818093690002C019
:1007000081E08983EA81FB818381882F90E00096D4
:100710008230910530F4EA81FB81838180936C0003
:1007200005C081E0898302C081E0898389810F90BF
:100730000F900F900F900F90CF91DF910895DF935E
:10074000CF93CDB7DEB72C970FB6F894DEBF0FBEB0
:10075000CDBF8A834B835C836D837E8319828A81BC
:10076000282F30E03C872B878B859C85009739F0BC
:100770002B853C852130310509F475C0DBC08B81A8
:100780009C81AD81BE818F3F9105A105B10508F027
:1007900067C080916A00282F30E03A8729878985D1
:1007A0009A85009731F029853A852130310521F16C
:1007B00054C0A3E5B0E0E3E5F0E0808188608C936D
:1007C000A3E5B0E0E3E5F0E08081887F8C93A3E5CA
:1007D000B0E0E3E5F0E0908180916700892B8C9395
:1007E000A8E5B0E0E8E5F0E0808181608C93ECE57D
:1007F000F0E08B818083A0C0A3E5B0E0E3E5F0E00A
:10080000808188608C93A3E5B0E0E3E5F0E080812F
:100810008F7B8C93AFE5B0E0EFE5F0E080818068FE
:100820008C93A9E5B0E0E9E5F0E0808182608C93EB
:10083000A3E5B0E0E3E5F0E08081887F8C93A3E559
:10084000B0E0E3E5F0E0908180916700892B8C9324
:10085000ECE5F0E08B8180836FC081E089836CC020
:1008600081E0898369C08B819C81AD81BE818030AC
:1008700030E0930731E0A30730E0B30708F057C03A
:10088000ECE4F0E08B819C81909581959F4F918362
:10089000808380916B00282F30E038872F838F81F1
:1008A0009885009731F02F81388521303105E9F0A6
:1008B0003BC0AEE4B0E0EEE4F0E08081887F8C9352
:1008C000AEE4B0E0EEE4F0E0908180916800892B26
:1008D0008C93A8E5B0E0E8E5F0E0808184608C933B
:1008E000ECE4F0E01182108227C0AEE4B0E0EEE468
:1008F000F0E08081887F8C93AEE4B0E0EEE4F0E03D
:10090000908180916800892B8C93A9E5B0E0E9E59E
:10091000F0E0808184608C93AFE5B0E0EFE5F0E03B
:10092000808180688C9308C081E0898305C081E064
:10093000898302C081E0898389812C960FB6F8945F
:10094000DEBF0FBECDBFCF91DF910895DF93CF9370
:1009500000D000D0CDB7DEB78A8319828A81282FD4
:1009600030E03C832B838B819C81009731F02B817D
:100970003C812130310549F010C0A3E5B0E0E3E54A
:10098000F0E08081887F8C930AC0AEE4B0E0EEE4B2
:10099000F0E08081887F8C9302C081E08983898127
:1009A0000F900F900F900F90CF91DF910895DF93EC
:1009B000CF9300D000D0CDB7DEB78A8319828A8169
:1009C000282F30E03C832B838B819C81009731F072
:1009D0002B813C812130310529F009C0E2E5F0E0AE
:1009E000108207C0ECE4F0E01182108202C081E0C6
:1009F000898389810F900F900F900F90CF91DF9195
:100A00000895DF93CF9300D000D000D0CDB7DEB7EC
:100A10008A837C836B8319828B819C81009719F474
:100A200081E08983A6C08A81282F30E03E832D8310
:100A30008D819E81009739F02D813E8121303105D5
:100A400009F44BC094C080916700813039F4EB8188
:100A5000FC8110821182128213828BC08091670008
:100A6000823059F4EB81FC8181E090E0A0E0B0E0BD
:100A700080839183A283B3837CC08091670083309D
:100A800059F4EB81FC8188E090E0A0E0B0E0808345
:100A90009183A283B3836DC080916700843059F441
:100AA000EB81FC8180E290E0A0E0B0E08083918364
:100AB000A283B3835EC080916700853059F4EB81D7
:100AC000FC818DE790E0A0E0B0E080839183A28379
:100AD000B3834FC081E089834CC08091680081302E
:100AE00039F4EB81FC81108211821282138241C0A1
:100AF00080916800823059F4EB81FC8181E090E0C4
:100B0000A0E0B0E080839183A283B38332C0809160
:100B10006800833059F4EB81FC8188E090E0A0E02C
:100B2000B0E080839183A283B38323C08091680067
:100B3000843059F4EB81FC8180E290E0A0E0B0E0E9
:100B400080839183A283B38314C080916800853031
:100B500059F4EB81FC818DE790E0A0E0B0E0808368
:100B60009183A283B38305C081E0898302C081E0C1
:100B70008983898126960FB6F894DEBF0FBECDBF5C
:100B8000CF91DF910895DF93CF9300D000D000D0B4
:100B9000CDB7DEB78A837C836B8319828B819C817E
:100BA000009711F481E089838A81282F30E03E8309
:100BB0002D838D819E81009731F02D813E812130E2
:100BC000310551F013C0E8E5F0E080818695817031
:100BD000EB81FC8180830CC0E8E5F0E080818695A4
:100BE00086958170EB81FC81808302C081E08983DE
:100BF000898126960FB6F894DEBF0FBECDBFCF9188
:100C0000DF910895DF93CF9300D000D0CDB7DEB74A
:100C10008A837C836B8319828B819C81009719F472
:100C200081E089830EC08A81882F90E0009739F493
:100C30008B819C81909366008093650002C081E067
:100C4000898389810F900F900F900F90CF91DF9142
:100C500008951F920F920FB60F9211242F933F9376
:100C60004F935F936F937F938F939F93AF93BF93B4
:100C7000EF93FF93DF93CF93CDB7DEB780916500FD
:100C800090916600009729F0E0916500F091660070
:100C90000995CF91DF91FF91EF91BF91AF919F9116
:100CA0008F917F916F915F914F913F912F910F9015
:100CB0000FBE0F901F901895DF93CF93CDB7DEB77F
:100CC000A5E5B0E0E5E5F0E0808180618C93A5E5E5
:100CD000B0E0E5E5F0E0808180628C93A5E5B0E0CE
:100CE000E5E5F0E0808180688C93CF91DF910895F5
:100CF000DF93CF9300D000D00F92CDB7DEB78A83B9
:100D00006B8319828A81282F30E03D832C838C816C
:100D10009D8181309105D1F02C813D8122303105BA
:100D20002CF48C819D81009761F01FC02C813D8146
:100D30002230310581F08C819D818330910581F0D5
:100D400014C0EAE3F0E08B81808311C0E7E3F0E0B8
:100D50008B8180830CC0E4E3F0E08B81808307C04B
:100D6000E1E3F0E08B81808302C081E089838981A7
:100D70000F900F900F900F900F90CF91DF910895EB
:100D8000DF93CF9300D00F92CDB7DEB78A836B830A
:100D900019828A81803218F081E08983B4C08B8106
:100DA000882331F08B81813019F081E08983ABC0D9
:100DB0008A81883010F5AAE3B0E0EAE3F0E08081B0
:100DC000482F8A81282F30E081E090E002C0880F10
:100DD000991F2A95E2F7809548238B81282F30E0D0
:100DE0008A81882F90E0B90102C0660F771F8A952B
:100DF000E2F7CB01842B8C9386C08A81883048F13E
:100E00008A81803130F5A7E3B0E0E7E3F0E080814C
:100E1000482F8A81882F90E09C012850304081E043
:100E200090E002C0880F991F2A95E2F78095482329
:100E30008B81282F30E08A81882F90E00897B901B4
:100E400002C0660F771F8A95E2F7CB01842B8C9343
:100E50005AC08A81803148F18A81883130F5A4E313
:100E6000B0E0E4E3F0E08081482F8A81882F90E0B1
:100E70009C012051304081E090E002C0880F991F12
:100E80002A95E2F7809548238B81282F30E08A81CC
:100E9000882F90E04097B90102C0660F771F8A95AE
:100EA000E2F7CB01842B8C932EC08A81883148F1E4
:100EB0008A81803230F5A1E3B0E0E1E3F0E08081A7
:100EC000482F8A81882F90E09C012851304081E092
:100ED00090E002C0880F991F2A95E2F78095482379
:100EE0008B81282F30E08A81882F90E04897B901C4
:100EF00002C0660F771F8A95E2F7CB01842B8C9393
:100F000002C081E0898389810F900F900F90CF916B
:100F1000DF910895DF93CF9300D000D00F92CDB72B
:100F2000DEB78A836B8319828B81882319F481E071
:100F3000898335C08A81282F30E03D832C838C81C2
:100F40009D8181309105D1F02C813D812230310588
:100F50002CF48C819D81009761F01FC02C813D8114
:100F60002230310581F08C819D818330910581F0A3
:100F700014C0EBE3F0E08B81808311C0E8E3F0E084
:100F80008B8180830CC0E5E3F0E08B81808307C018
:100F9000E2E3F0E08B81808302C081E08983898174
:100FA0000F900F900F900F900F90CF91DF910895B9
:100FB000DF93CF9300D00F92CDB7DEB78A836B83D8
:100FC00019828A81803218F081E08983B4C08B81D4
:100FD000882331F08B81813019F081E08983ABC0A7
:100FE0008A81883010F5ABE3B0E0EBE3F0E080817C
:100FF000482F8A81282F30E081E090E002C0880FDE
:10100000991F2A95E2F7809548238B81282F30E09D
:101010008A81882F90E0B90102C0660F771F8A95F8
:10102000E2F7CB01842B8C9386C08A81883048F10B
:101030008A81803130F5A8E3B0E0E8E3F0E0808118
:10104000482F8A81882F90E09C012850304081E011
:1010500090E002C0880F991F2A95E2F780954823F7
:101060008B81282F30E08A81882F90E00897B90182
:1010700002C0660F771F8A95E2F7CB01842B8C9311
:101080005AC08A81803148F18A81883130F5A5E3E0
:10109000B0E0E5E3F0E08081482F8A81882F90E07E
:1010A0009C012051304081E090E002C0880F991FE0
:1010B0002A95E2F7809548238B81282F30E08A819A
:1010C000882F90E04097B90102C0660F771F8A957C
:1010D000E2F7CB01842B8C932EC08A81883148F1B2
:1010E0008A81803230F5A2E3B0E0E2E3F0E0808173
:1010F000482F8A81882F90E09C012851304081E060
:1011000090E002C0880F991F2A95E2F78095482346
:101110008B81282F30E08A81882F90E04897B90191
:1011200002C0660F771F8A95E2F7CB01842B8C9360
:1011300002C081E0898389810F900F900F90CF9139
:10114000DF910895DF93CF9300D000D000D0CDB7CA
:10115000DEB78A837C836B8319828B819C810097A5
:1011600019F481E089833DC08A81282F30E03E83D5
:101170002D838D819E8181309105E1F02D813E810D
:10118000223031052CF48D819E81009761F027C0BB
:101190002D813E8122303105A1F08D819E818330E9
:1011A0009105B1F01CC0E9E3F0E08081EB81FC81A6
:1011B000808317C0E6E3F0E08081EB81FC818083CF
:1011C00010C0E3E3F0E08081EB81FC81808309C003
:1011D000E0E3F0E08081EB81FC81808302C081E06C
:1011E0008983898126960FB6F894DEBF0FBECDBFE6
:1011F000CF91DF910895DF93CF9300D000D0CDB78A
:10120000DEB78A837C836B8319828B819C810097F4
:1012100019F481E0898370C08A81803218F081E0FE
:1012200089836AC08A818830A0F4E9E3F0E0808194
:10123000282F30E08A81882F90E0A90102C05595BF
:1012400047958A95E2F7CA018170EB81FC81808322
:1012500053C08A818830C0F08A818031A8F4E6E3E7
:10126000F0E08081282F30E08A81882F90E0089775
:10127000A90102C0559547958A95E2F7CA01817088
:10128000EB81FC81808338C08A818031C0F08A8103
:101290008831A8F4E3E3F0E08081282F30E08A81F0
:1012A000882F90E04097A90102C0559547958A95EF
:1012B000E2F7CA018170EB81FC8180831DC08A81C5
:1012C0008831C0F08A818032A8F4E0E3F0E08081C8
:1012D000282F30E08A81882F90E04897A90102C02A
:1012E000559547958A95E2F7CA018170EB81FC819B
:1012F000808302C081E0898389810F900F900F90D5
:101300000F90CF91DF910895DF93CF93CDB7DEB7E4
:1013100029970FB6F894DEBF0FBECDBF8C836D83C7
:101320001B821A8281E089838C81282F30E03987E3
:1013300028878885998581309105D1F02885398560
:10134000223031052CF488859985009761F01FC003
:10135000288539852230310581F08885998583304B
:10136000910581F014C0EAE3F0E08081898311C027
:10137000E7E3F0E0808189830CC0E4E3F0E0808162
:10138000898307C0E1E3F0E08081898302C081E0C6
:101390008A838981882321F081E08B8381E08A839D
:1013A0008A818130B1F18C81282F30E03F832E83F8
:1013B0008E819F8181309105D1F02E813F81223035
:1013C00031052CF48E819F81009761F01FC02E8122
:1013D0003F812230310581F08E819F8183309105DC
:1013E00081F014C0EBE3F0E08D81808314C0E8E36A
:1013F000F0E08D8180830FC0E5E3F0E08D81808394
:101400000AC0E2E3F0E08D81808305C081E08B8338
:1014100002C081E08B838B8129960FB6F894DEBFE2
:101420000FBECDBFCF91DF910895DF93CF9300D052
:1014300000D00F92CDB7DEB78C836D831B821A82EA
:1014400081E089838C81883090F4EAE3F0E0808148
:10145000282F30E08C81882F90E0A90102C055959B
:1014600047958A95E2F7CA01817089834DC08C81C6
:101470008830B0F08C81803198F4E7E3F0E080812F
:10148000282F30E08C81882F90E00897B90102C0A6
:10149000759567958A95E2F7CB018170898334C091
:1014A0008C818031B0F08C81883198F4E4E3F0E0F5
:1014B0008081282F30E08C81882F90E04097A9010F
:1014C00002C0559547958A95E2F7CA0181708983D4
:1014D0001BC08C818831B0F08C81803298F4E1E3BC
:1014E000F0E08081282F30E08C81882F90E04897B1
:1014F000B90102C0759567958A95E2F7CB018170B5
:10150000898302C081E08A838981882321F081E078
:101510008B8381E08A838A81813009F4BBC08C810E
:10152000803218F081E08B83B7C08D81882331F041
:101530008D81813019F081E08B83AEC08C81883041
:1015400010F5ABE3B0E0EBE3F0E08081482F8C8155
:10155000282F30E081E090E002C0880F991F2A9583
:10156000E2F7809548238D81282F30E08C81882FE9
:1015700090E0B90102C0660F771F8A95E2F7CB01B0
:10158000842B8C9389C08C81883048F18C81803188
:1015900030F5A8E3B0E0E8E3F0E08081482F8C81EB
:1015A000882F90E09C012850304081E090E002C0FC
:1015B000880F991F2A95E2F7809548238D81282F5F
:1015C00030E08C81882F90E00897B90102C0660F47
:1015D000771F8A95E2F7CB01842B8C935DC08C81B9
:1015E000803148F18C81883130F5A5E3B0E0E5E346
:1015F000F0E08081482F8C81882F90E09C01205161
:10160000304081E090E002C0880F991F2A95E2F7F0
:10161000809548238D81282F30E08C81882F90E0A1
:101620004097B90102C0660F771F8A95E2F7CB0198
:10163000842B8C9331C08C81883148F18C8180322D
:1016400030F5A2E3B0E0E2E3F0E08081482F8C8146
:10165000882F90E09C012851304081E090E002C04A
:10166000880F991F2A95E2F7809548238D81282FAE
:1016700030E08C81882F90E04897B90102C0660F56
:10168000771F8A95E2F7CB01842B8C9305C081E00C
:101690008A8302C081E08B838B810F900F900F9023
:1016A0000F900F90CF91DF910895DF93CF9300D0EB
:1016B0000F92CDB7DEB78A836B8319828A8180321D
:1016C00018F081E0898304C08A816B810E94D80769
:1016D00089810F900F900F90CF91DF910895DF9344
:1016E000CF9300D000D000D0CDB7DEB78CE061E062
:1016F0000E94C0068DE061E00E94C0068EE061E0BD
:101700000E94C0068FE061E00E94C0068CE060E0AD
:101710000E94550B8DE060E00E94550B8EE060E06A
:101720000E94550B8FE060E00E94550B80E699E027
:10173000A0E0B0E089839A83AB83BC8383E08D8390
:1017400081E08E83CE0101960E9449008DE690E0F3
:101750000E94390280916D00813069F48CE061E073
:101760000E94D8078DE060E00E94D8078EE060E01C
:101770000E94D807EBCF80916D00823069F48CE035
:1017800060E00E94D8078DE061E00E94D8078EE0FB
:1017900060E00E94D807DACF80916D008330B1F607
:1017A0008CE060E00E94D8078DE060E00E94D807DE
:1017B0008EE061E00E94D807C9CFA1E21A2EAA1BD1
:1017C000BB1BFD010DC0AA1FBB1FEE1FFF1FA217F1
:1017D000B307E407F50720F0A21BB30BE40BF50BEE
:1017E000661F771F881F991F1A9469F76095709577
:1017F000809590959B01AC01BD01CF010895F894AF
:02180000FFCF18
:0418020000050001DC
:00000001FF
