S00B00005350492E737265632D
S11300000C942A000C943C000C943C000C943C008E
S11300100C943C000C943C000C943C000C943C006C
S11300200C943C000C943C000C943C000C943C005C
S11300300C94C9000C943C000C943C000C943C00BF
S11300400C943C000C943C000C943C000C943C003C
S11300500C943C0011241FBECFE5D8E0DEBFCDBF19
S113006020E0A0E6B0E001C01D92A336B207E1F79C
S11300700E943E000C9491010C940000CF93DF93F6
S113008000D000D01F92CDB7DEB782E089831A82F8
S11300901B821C821D82CE0101960E94CD001AE0B3
S11300A0812F0E947A011F5FFBCF803208F06BC062
S11300B0623008F06AC08830A8F49AB321E030E0D6
S11300C0082E02C0220F331F0A94E2F72095292339
S11300D070E002C0660F771F8A95E2F7622B6ABB55
S11300E080E0089598EF980F9830B8F447B390E003
S11300F0089721E030E0082E02C0220F331F0A9433
S1130100E2F72095242370E002C0660F771F8A95DA
S1130110E2F7622B67BB80E0089590EF980F983068
S1130120B8F444B390E0409721E030E0082E02C0D8
S1130130220F331F0A94E2F72095242370E002C0B3
S1130140660F771F8A95E2F7622B64BB80E00895FF
S113015098EE980F9830D8F441B390E0489721E096
S113016030E0082E02C0220F331F0A94E2F72095D4
S1130170242370E002C0660F771F8A95E2F7622B92
S113018061BB80E0089581E0089581E0089581E0F5
S1130190089581E0809362000895CF93DF930097E0
S11301A009F49FC0FC012281213039F420936100BD
S11301B02FB720682FBF6F9A6BC0211158C01092BF
S11301C061006F9865C0EC016D9A8B81811126C026
S11301D06C9A61E08CE00E94550061E08DE00E9421
S11301E0550060E08EE00E94550061E08FE00E94BF
S11301F055008981811102C0709852C08130D1F5B7
S1130200709A4EC06898699865C0689A699862C087
S11302106898699A5FC0689A699A5CC0813009F0ED
S113022063C06C9860E08CE00E94550060E08DE053
S11302300E94550061E08EE00E94550060E08FE06E
S11302400E9455008981811102C0709838C08130A4
S1130250A1F4709A34C0689869983CC0689A699807
S113026039C06898699A36C0689A699A33C080E937
S113027093E00BC084E993E008C084E993E005C0EF
S113028085E993E002C085E993E0109260002FC0F5
S1130290FC012481222309F496CF81E993E0F5CF70
S11302A0689869988881813009F4AFCF08F4AACF9F
S11302B0823009F4ADCF833009F4ADCFE1CF689833
S11302C069988881813051F230F2823051F2833062
S11302D059F2D9CF81E0809360006E9A8EE893E062
S11302E006C08FE893E0D1CF82E993E0CECFDF91CF
S11302F0CF91089590916000913081F490916100C4
S1130300911106C08FB9779BFECF82EA93E00895DE
S1130310109262008FB982EA93E0089589E993E02C
S10903200895F894FFCFDC
S9030000FC
